{
  "_format": "hh-sol-artifact-1",
  "contractName": "Election",
  "sourceName": "contracts/Election.sol",
  "abi": [
    {
      "inputs": [],
      "stateMutability": "nonpayable",
      "type": "constructor"
    },
    {
      "anonymous": false,
      "inputs": [
        {
          "indexed": true,
          "internalType": "address",
          "name": "voter",
          "type": "address"
        }
      ],
      "name": "DuplicateLoginAttempt",
      "type": "event"
    },
    {
      "anonymous": false,
      "inputs": [
        {
          "indexed": true,
          "internalType": "address",
          "name": "voter",
          "type": "address"
        },
        {
          "indexed": true,
          "internalType": "uint256",
          "name": "candidateId",
          "type": "uint256"
        }
      ],
      "name": "VotedEvent",
      "type": "event"
    },
    {
      "inputs": [
        {
          "internalType": "uint256",
          "name": "",
          "type": "uint256"
        }
      ],
      "name": "candidates",
      "outputs": [
        {
          "internalType": "uint256",
          "name": "id",
          "type": "uint256"
        },
        {
          "internalType": "string",
          "name": "name",
          "type": "string"
        },
        {
          "internalType": "uint256",
          "name": "voteCount",
          "type": "uint256"
        }
      ],
      "stateMutability": "view",
      "type": "function"
    },
    {
      "inputs": [],
      "name": "candidatesCount",
      "outputs": [
        {
          "internalType": "uint256",
          "name": "",
          "type": "uint256"
        }
      ],
      "stateMutability": "view",
      "type": "function"
    },
    {
      "inputs": [],
      "name": "getRepeatLoginAttempts",
      "outputs": [
        {
          "internalType": "address[]",
          "name": "",
          "type": "address[]"
        }
      ],
      "stateMutability": "view",
      "type": "function"
    },
    {
      "inputs": [
        {
          "internalType": "address",
          "name": "_voter",
          "type": "address"
        }
      ],
      "name": "hasUserVoted",
      "outputs": [
        {
          "internalType": "bool",
          "name": "",
          "type": "bool"
        }
      ],
      "stateMutability": "view",
      "type": "function"
    },
    {
      "inputs": [
        {
          "internalType": "address",
          "name": "_voter",
          "type": "address"
        }
      ],
      "name": "logDuplicateLogin",
      "outputs": [],
      "stateMutability": "nonpayable",
      "type": "function"
    },
    {
      "inputs": [
        {
          "internalType": "uint256",
          "name": "",
          "type": "uint256"
        }
      ],
      "name": "repeatLoginAttempts",
      "outputs": [
        {
          "internalType": "address",
          "name": "",
          "type": "address"
        }
      ],
      "stateMutability": "view",
      "type": "function"
    },
    {
      "inputs": [
        {
          "internalType": "uint256",
          "name": "_candidateId",
          "type": "uint256"
        }
      ],
      "name": "vote",
      "outputs": [],
      "stateMutability": "nonpayable",
      "type": "function"
    }
  ],
  "bytecode": "0x608060405234801561001057600080fd5b506100556040518060400160405280600b81526020017f43616e6469646174652d3100000000000000000000000000000000000000000081525061009e60201b60201c565b6100996040518060400160405280600b81526020017f43616e6469646174652d3200000000000000000000000000000000000000000081525061009e60201b60201c565b6104b1565b600360008154809291906100b190610151565b9190505550604051806060016040528060035481526020018281526020016000815250600080600354815260200190815260200160002060008201518160000155602082015181600101908161010791906103df565b506040820151816002015590505050565b7f4e487b7100000000000000000000000000000000000000000000000000000000600052601160045260246000fd5b6000819050919050565b600061015c82610147565b91507fffffffffffffffffffffffffffffffffffffffffffffffffffffffffffffffff820361018e5761018d610118565b5b600182019050919050565b600081519050919050565b7f4e487b7100000000000000000000000000000000000000000000000000000000600052604160045260246000fd5b7f4e487b7100000000000000000000000000000000000000000000000000000000600052602260045260246000fd5b6000600282049050600182168061021a57607f821691505b60208210810361022d5761022c6101d3565b5b50919050565b60008190508160005260206000209050919050565b60006020601f8301049050919050565b600082821b905092915050565b6000600883026102957fffffffffffffffffffffffffffffffffffffffffffffffffffffffffffffffff82610258565b61029f8683610258565b95508019841693508086168417925050509392505050565b6000819050919050565b60006102dc6102d76102d284610147565b6102b7565b610147565b9050919050565b6000819050919050565b6102f6836102c1565b61030a610302826102e3565b848454610265565b825550505050565b600090565b61031f610312565b61032a8184846102ed565b505050565b5b8181101561034e57610343600082610317565b600181019050610330565b5050565b601f8211156103935761036481610233565b61036d84610248565b8101602085101561037c578190505b61039061038885610248565b83018261032f565b50505b505050565b600082821c905092915050565b60006103b660001984600802610398565b1980831691505092915050565b60006103cf83836103a5565b9150826002028217905092915050565b6103e882610199565b67ffffffffffffffff811115610401576104006101a4565b5b61040b8254610202565b610416828285610352565b600060209050601f8311600181146104495760008415610437578287015190505b61044185826103c3565b8655506104a9565b601f19841661045786610233565b60005b8281101561047f5784890151825560018201915060208501945060208101905061045a565b8683101561049c5784890151610498601f8916826103a5565b8355505b6001600288020188555050505b505050505050565b610bbb806104c06000396000f3fe608060405234801561001057600080fd5b506004361061007d5760003560e01c806362fcf4ff1161005b57806362fcf4ff146100ee5780637fabe80a1461010c578063adabd3201461013c578063c66cd8fe1461016c5761007d565b80630121b93f146100825780632d35a8a21461009e5780633477ee2e146100bc575b600080fd5b61009c6004803603810190610097919061067a565b610188565b005b6100a661032f565b6040516100b391906106b6565b60405180910390f35b6100d660048036038101906100d1919061067a565b610335565b6040516100e593929190610761565b60405180910390f35b6100f66103e7565b604051610103919061088f565b60405180910390f35b610126600480360381019061012191906108dd565b610475565b6040516101339190610925565b60405180910390f35b6101566004803603810190610151919061067a565b6104cb565b604051610163919061094f565b60405180910390f35b610186600480360381019061018191906108dd565b61050a565b005b600160003373ffffffffffffffffffffffffffffffffffffffff1673ffffffffffffffffffffffffffffffffffffffff16815260200190815260200160002060009054906101000a900460ff1615610215576040517f08c379a000000000000000000000000000000000000000000000000000000000815260040161020c906109b6565b60405180910390fd5b60008111801561022757506003548111155b610266576040517f08c379a000000000000000000000000000000000000000000000000000000000815260040161025d90610a22565b60405180910390fd5b600080828152602001908152602001600020600201600081548092919061028c90610a71565b919050555060018060003373ffffffffffffffffffffffffffffffffffffffff1673ffffffffffffffffffffffffffffffffffffffff16815260200190815260200160002060006101000a81548160ff021916908315150217905550803373ffffffffffffffffffffffffffffffffffffffff167f0902475a854b82199b4f5d6b81327ec4c4ec077ce0356a106ddc2748c5285ed360405160405180910390a350565b60035481565b600060205280600052604060002060009150905080600001549080600101805461035e90610ae8565b80601f016020809104026020016040519081016040528092919081815260200182805461038a90610ae8565b80156103d75780601f106103ac576101008083540402835291602001916103d7565b820191906000526020600020905b8154815290600101906020018083116103ba57829003601f168201915b5050505050908060020154905083565b6060600280548060200260200160405190810160405280929190818152602001828054801561046b57602002820191906000526020600020905b8160009054906101000a900473ffffffffffffffffffffffffffffffffffffffff1673ffffffffffffffffffffffffffffffffffffffff1681526020019060010190808311610421575b5050505050905090565b6000600160008373ffffffffffffffffffffffffffffffffffffffff1673ffffffffffffffffffffffffffffffffffffffff16815260200190815260200160002060009054906101000a900460ff169050919050565b600281815481106104db57600080fd5b906000526020600020016000915054906101000a900473ffffffffffffffffffffffffffffffffffffffff1681565b600160008273ffffffffffffffffffffffffffffffffffffffff1673ffffffffffffffffffffffffffffffffffffffff16815260200190815260200160002060009054906101000a900460ff16610596576040517f08c379a000000000000000000000000000000000000000000000000000000000815260040161058d90610b65565b60405180910390fd5b6002819080600181540180825580915050600190039060005260206000200160009091909190916101000a81548173ffffffffffffffffffffffffffffffffffffffff021916908373ffffffffffffffffffffffffffffffffffffffff1602179055508073ffffffffffffffffffffffffffffffffffffffff167f87a209b7c9050962a469ae436fd39a00878bda3834604c283b71999c7c514a8060405160405180910390a250565b600080fd5b6000819050919050565b61065781610644565b811461066257600080fd5b50565b6000813590506106748161064e565b92915050565b6000602082840312156106905761068f61063f565b5b600061069e84828501610665565b91505092915050565b6106b081610644565b82525050565b60006020820190506106cb60008301846106a7565b92915050565b600081519050919050565b600082825260208201905092915050565b60005b8381101561070b5780820151818401526020810190506106f0565b60008484015250505050565b6000601f19601f8301169050919050565b6000610733826106d1565b61073d81856106dc565b935061074d8185602086016106ed565b61075681610717565b840191505092915050565b600060608201905061077660008301866106a7565b81810360208301526107888185610728565b905061079760408301846106a7565b949350505050565b600081519050919050565b600082825260208201905092915050565b6000819050602082019050919050565b600073ffffffffffffffffffffffffffffffffffffffff82169050919050565b60006107f6826107cb565b9050919050565b610806816107eb565b82525050565b600061081883836107fd565b60208301905092915050565b6000602082019050919050565b600061083c8261079f565b61084681856107aa565b9350610851836107bb565b8060005b83811015610882578151610869888261080c565b975061087483610824565b925050600181019050610855565b5085935050505092915050565b600060208201905081810360008301526108a98184610831565b905092915050565b6108ba816107eb565b81146108c557600080fd5b50565b6000813590506108d7816108b1565b92915050565b6000602082840312156108f3576108f261063f565b5b6000610901848285016108c8565b91505092915050565b60008115159050919050565b61091f8161090a565b82525050565b600060208201905061093a6000830184610916565b92915050565b610949816107eb565b82525050565b60006020820190506109646000830184610940565b92915050565b7f596f75206861766520616c726561647920766f74656421000000000000000000600082015250565b60006109a06017836106dc565b91506109ab8261096a565b602082019050919050565b600060208201905081810360008301526109cf81610993565b9050919050565b7f496e76616c69642063616e646964617465204944000000000000000000000000600082015250565b6000610a0c6014836106dc565b9150610a17826109d6565b602082019050919050565b60006020820190508181036000830152610a3b816109ff565b9050919050565b7f4e487b7100000000000000000000000000000000000000000000000000000000600052601160045260246000fd5b6000610a7c82610644565b91507fffffffffffffffffffffffffffffffffffffffffffffffffffffffffffffffff8203610aae57610aad610a42565b5b600182019050919050565b7f4e487b7100000000000000000000000000000000000000000000000000000000600052602260045260246000fd5b60006002820490506001821680610b0057607f821691505b602082108103610b1357610b12610ab9565b5b50919050565b7f5573657220686173206e6f7420766f7465642079657421000000000000000000600082015250565b6000610b4f6017836106dc565b9150610b5a82610b19565b602082019050919050565b60006020820190508181036000830152610b7e81610b42565b905091905056fea26469706673582212204c609f418426d46e8c8c92d9742e7afab6bbccc075ee1ff916085465c420f90964736f6c634300081c0033",
  "linkReferences": {},
  "deployedLinkReferences": {}
}